:100000000C948F050C94D3050C94D3050C94D30554
:100010000C94D3050C94D3050C94D3050C94D30500
:100020000C94D3050C94D3050C94420D0C94140E2F
:100030000C942F1C0C94D3050C94D3050C94D3056D
:100040000C94D3050C94D3050C94D3050C94D305D0
:100050000C94D3050C94A21C0C94D3050C94D305DA
:100060000C94D3050C94D3050C94D3050C94D305B0
:100070000C94D3050C94D3050C94D3050C94D305A0
:100080000C94D3050C94D3050C94D3050C94D30590
:100090000C94D3050C94D3050C94D3050C94D30580
:1000A0000C94D3050C94D3050C94D305790E9B0EB8
:1000B000860F9B0E860FDD0E000F860F550F680F03
:1000C000BA12BA12E812E8124413801371157115AE
:1000D000981371158F148F144B15711571155F15C9
:1000E000F1A1291E1F20212223242526272D2E356C
:1000F000312B141A0815171C180C12132F302A0054
:10010000E4041607090A0B0D0E0F33344E2800E1E4
:10011000001D1B061905111036373800E5C0E0E256
:10012000E30000002C0000005051524F00293A3BE0
:100130003C3D3E3F404142434445B0AB010152018A
:1001400001010101010101AAA9A8000150514F01BB
:10015000010101010101010101006501010101012C
:10016000010101010101010101E4E6E700000001D4
:100170000000004A4E4B4D000A0025303136620027
:100180003A200025303258000A722F632030313275
:10019000333435363738394142434445460A000A3C
:1001A000002530325800626F756E6365213A200079
:1001B0005B735D004B6579626F617264207374617B
:1001C00072742E0A0055534220636F6E666967751C
:1001D0007265642E0A005B575D005B535D005B52E5
:1001E0005D005B445D005B435D000C035300360023
:1001F00030002D0058000000080376006E006300F8
:1002000000000403090409027400040100A032097B
:100210000400000103010100092111010001223F36
:10022000000705810308000A090401000103010217
:1002300000092111010001224D0007058203080079
:100240000A09040200010300000009211101000154
:100250002236000705830308000A0904030002038D
:10026000000000092111010001222000070584037C
:100270002000010705040320000112011001000005
:100280000008DAF066060100010200010631FF09EC
:1002900074A1010975150025FF95207508810209D3
:1002A00076150025FF952075089102C0050109808B
:1002B000A101850216010026B7001A01002AB70025
:1002C000751095018100C0050C0901A10185031677
:1002D0000100269C021A01002A9C027510950181DA
:1002E00000C005010902A1010901A10005091901C8
:1002F00029051500250195057501810295017503F4
:1003000081010501093009311581257F95027508A4
:10031000810609381581257F950175088106050C30
:100320000A38021581257F950175088106C0C00530
:10033000010906A101050719E029E7150025019526
:1003400008750181029501750881010508190129C7
:100350000595057501910295017503910105071930
:100360000029FF150025FF950675088100C00A00C9
:100370002530325820006B6579626F6172645F725C
:1003800065706F72743A20000A0025303258006B95
:100390006579626F6172645F7365745F6C65643AFE
:1003A0002000646F6E652E0A00626F6F746D616766
:1003B0006963207363616E3A202E2E2E2000290A75
:1003C000002575002F002575005D2800256400209C
:1003D00000256400200025640020002564007C00C6
:1003E00025303258006D6F7573656B6579205B62DF
:1003F000746E7C782079207620685D287265702F75
:1004000061636C293A205B006D6B5F776865656C92
:100410005F74696D655F746F5F6D6178203D202545
:10042000640A006D6B5F776865656C5F6D61785F0E
:100430007370656564203D2025640A006D6B5F74F0
:10044000696D655F746F5F6D6178203D2025640A7A
:10045000006D6B5F6D61785F7370656564203D2032
:1004600025640A006D6B5F696E74657276616C203D
:100470003D2025640A006D6B5F64656C6179203DE9
:100480002025640A006D6B5F776865656C5F746931
:100490006D655F746F5F6D6178203D2025640A0093
:1004A0006D6B5F776865656C5F6D61785F737065B4
:1004B0006564203D2025640A006D6B5F74696D657D
:1004C0005F746F5F6D6178203D2025640A006D6B5D
:1004D0005F6D61785F7370656564203D2025640AF7
:1004E000006D6B5F696E74657276616C203D2025CE
:1004F000640A006D6B5F64656C6179203D20256442
:100500000A000A00257500363A20776865656C5F39
:1005100074696D655F746F5F6D61783A20000A00E1
:10052000257500353A20776865656C5F6D61785F89
:1005300073706565643A20000A00257500343A201E
:1005400074696D655F746F5F6D61783A20000A00B1
:10055000257500333A206D61785F73706565643A84
:1005600020000A00257500323A20696E74657276A3
:10057000616C286D73293A20000A00257500313A14
:100580002064656C6179282A31306D73293A200026
:100590000A092D2056616C756573202D0A004D3EA9
:1005A000004D25643E20003F00736574206465663D
:1005B00061756C740A00433E20007768657265209F
:1005C00064656C74613A20637572736F723D256463
:1005D0002C20776865656C3D25640A536565206845
:1005E0007474703A2F2F656E2E77696B697065642D
:1005F00069612E6F72672F77696B692F4D6F757305
:10060000655F6B6579730A000A092D204D6F75735C
:10061000656B6579202D0A4553432F713A09717531
:1006200069740A313A0964656C6179282A31306D40
:1006300073290A323A09696E74657276616C286DA5
:1006400073290A333A096D61785F73706565640ACE
:10065000343A0974696D655F746F5F6D61780A354E
:100660003A09776865656C5F6D61785F7370656581
:10067000640A363A09776865656C5F74696D655F11
:10068000746F5F6D61780A0A703A097072696E74EE
:100690002076616C7565730A643A09736574206429
:1006A000656661756C74730A75703A092B310A645A
:1006B0006F776E3A092D310A706775703A092B31E0
:1006C000300A7067646F776E3A092D31300A0A7309
:1006D00070656564203D2064656C7461202A206D1E
:1006E00061785F7370656564202A20287265706583
:1006F0006174202F2074696D655F746F5F6D617820
:10070000290A003F004D3E2000433E20004C256456
:100710000A000A092D20436F6E736F6C65202D0A45
:100720004553432F713A09717569740A6D3A096D21
:100730006F7573656B65790A000A092D204D616735
:100740006963202D0A643A0964656275670A783A1C
:10075000096465627567206D61747269780A6B3A25
:10076000096465627567206B6579626F6172640AFE
:100770006D3A096465627567206D6F7573650A76F9
:100780003A0976657273696F6E0A733A0973746118
:100790007475730A633A09636F6E736F6C65206DCD
:1007A0006F64650A302D343A096C61796572302DB9
:1007B00034284631302D4634290A506175733A0980
:1007C000626F6F746C6F616465720A653A09656582
:1007D00070726F6D0A000A002575002E6E6B726FC5
:1007E0003A20000A002575002E737761705F626100
:1007F000636B736C6173685F6261636B7370616379
:10080000653A20000A002575002E737761705F67D6
:10081000726176655F6573633A20000A0025750092
:100820002E6E6F5F6775693A20000A002575002EED
:10083000737761705F72616C745F726775693A207B
:10084000000A002575002E737761705F6C616C740F
:100850005F6C6775693A20000A002575002E636198
:1008600070736C6F636B5F746F5F636F6E74726FC6
:100870006C3A20000A002575002E737761705F6363
:100880006F6E74726F6C5F636170736C6F636B3AE1
:1008900020000A0025303258006B65796D61705F69
:1008A000636F6E6669672E7261773A20000A0025D1
:1008B00075002E6D6F7573653A20000A002575006E
:1008C0002E6B6579626F6172643A20000A002575AB
:1008D000002E6D61747269783A20000A0025750057
:1008E0002E656E61626C653A20000A002530325830
:1008F0000064656275675F636F6E6669672E72611B
:10090000773A20000A0025750064656661756C748D
:100910005F6C617965723A20003F0074696D6572A1
:100920005F72656164333228293A202530346C586F
:100930000A006B6579626F6172645F69646C653A25
:100940002025580A006B6579626F6172645F70726E
:100950006F746F636F6C3A2025580A00686F737468
:100960005F6B6579626F6172645F6C65647328297F
:100970003A2025580A000A092D20537461747573B2
:10098000202D0A004743433A20342E382E3120418F
:1009900056522D4C4942433A20312E382E30737630
:1009A0006E204156525F415243483A20617672357B
:1009B0000A004F5054494F4E533A204C554641205F
:1009C000424F4F544D41474943204D4F5553454B9E
:1009D00045592045585452414B455920434F4E5399
:1009E0004F4C4520434F4D4D414E44203430393615
:1009F0000A004255494C443A20363032633130388F
:100A00002D6469727479202832313A33323A3032A7
:100A1000204170722032302032303136290A00569F
:100A200049443A2030784630444128766E63292084
:100A30005049443A20307830363636285336302DF7
:100A40005829205645523A203078303030310A004B
:100A5000444553433A20742E6D2E6B2E206B6579DE
:100A6000626F617264206669726D7761726520667B
:100A70006F722053656E74726171205336302D5839
:100A80000A000A092D2056657273696F6E202D0ABF
:100A9000000A6D6F7573653A206F66660A000A6D0D
:100AA0006F7573653A206F6E0A000A6B6579626F25
:100AB0006172643A206F66660A000A6B6579626F3C
:100AC0006172643A206F6E0A000A6D61747269780F
:100AD0003A206F66660A000A6D61747269783A207E
:100AE0006F6E0A000A64656275673A206F6E0A00CD
:100AF0000A64656275673A206F66660A000A0A62D0
:100B00006F6F746C6F616465722E2E2E2000433EF1
:100B100020006565636F6E6669673A0A00001124FC
:100B20001FBECFEFDAE0DEBFCDBF04B603FE24C0A8
:100B30008091D0019091D101A091D201B091D301C7
:100B40008730904BA740B04BB9F41092D00110926F
:100B5000D1011092D2011092D30114BE84B7877FC5
:100B600084BF88E10FB6F894809360001092600013
:100B70000FBEE0E0F8E3099511E0A0E0B1E0E2E9A2
:100B8000F1E502C005900D92A233B107D9F721E03B
:100B9000A2E3B1E001C01D92A03DB207E1F70E94BF
:100BA000780A0C94C7280C940000FF93EF93E0910F
:100BB0003201F0913301309709F00995EF91FF91DF
:100BC0000895FC018591803011F0EFDFFBCF08958F
:100BD000FF27E0E230E247FF0CC0419597FF09C0D4
:100BE000EDE26095709580959095611D711D811D58
:100BF000911D27FF02C0219530E350E2AA27660F1E
:100C0000771F881F991FAA1FA41710F0A41B6395B4
:100C10005A95A9F7AA3008F0A95FA05DAF93F395A4
:100C2000611571058105910541F7ED3211F4EF93DE
:100C3000F395F21718F43F93F395FBCF8F91B5DF3F
:100C4000FA95E1F70895E991F9918591803021F0C5
:100C5000853219F0AADFF9CF089520E0E894559184
:100C60005532C1F3503311F4689455915A3348F416
:100C7000505390F3220F022E220F220F200D250F2A
:100C8000F4CF0EF4219589919991533619F3533786
:100C900029F1533559F1BC0188279927E8945C362E
:100CA00021F48991999168945591543639F446EF1D
:100CB0007EF077FF0DC08FEF9FEF0AC055374AE0F7
:100CC00039F0583540E121F0523642E009F00895FC
:100CD000FF93EF937DDFEF91FF91B7CFFF93EF93FA
:100CE000FC0181918030B9F360DFFBCFFF93EF937C
:100CF00068DFF1CFDF93CF93CDB7DEB72596A3DFC3
:100D0000CF91DF9108959FE0799FF00111249BE43A
:100D1000899FE00DF11D1124E60FF11DEE51FF4FEB
:100D200084910895E82FF0E0EE0FFF1FE05AF040A5
:100D300085919491089584B1807784B985B1807745
:100D400085B908950E949B068598899A6E98769A2F
:100D50008AB11AB88BB18FEF8BB987B18F7387B90E
:100D600088B1806C88B984B18F7884B985B1806787
:100D700085B9EEE3F1E0A4E3B1E0119211921D9286
:100D80001D9281E0E834F807C1F70895EF92FF92D1
:100D90000F931F93CF93DF93C4E3D1E010E001E002
:100DA000E1EAEE2EE1E0FE2E123071F018F411307F
:100DB00041F004C0133059F0143061F0279A2F9895
:100DC0000BC0239A2B9808C0229A2A9805C0219A12
:100DD000299802C0209A289880EA8A95F1F729B1CB
:100DE0002170202730E0499B03C080E090E002C0E2
:100DF00082E090E0282B392B4A9B03C080E090E0F2
:100E000002C084E090E0822B932B4B9B03C060E0F8
:100E100070E002C068E070E09C01262B372B4D9BF0
:100E200003C040E050E002C040E150E0242B352BED
:100E30004C9B03C080E090E002C080E290E0282B51
:100E4000392B4E9B03C080E090E002C080E490E02C
:100E5000282B392B89B1992787FD909580959095FE
:100E60008827990F881F99279695982F88279795F7
:100E70008795282B392B1C9B03C040E050E002C013
:100E800040E051E0242B352B1D9B03C040E050E097
:100E900002C040E052E0242B352B1E9B03C080E0B3
:100EA00090E002C080E094E0282B392B369B03C0F1
:100EB00080E090E002C080E098E0282B392B86B1DA
:100EC000992787FD9095809590958827990F881F81
:100ED0009927982F88279295907F282B392B669BEE
:100EE00003C080E090E002C080E090E2282B392B24
:100EF000799B03C080E090E002C080E090E4282B62
:100F0000392B888199818217930749F13983288386
:100F100080910001882301F18091B10180FF04C01C
:100F200086EA91E00E94E1058091B10180FF0CC04A
:100F3000809100011F928F93FF92EF920E947A0698
:100F40000F900F900F900F908091B10180FF04C01F
:100F50008FE991E00E94E10585E0809300010E9405
:100F60009B061F5F2296153009F01ECF809100016D
:100F70008823C1F0815080930001882339F08FE9E4
:100F80009FE00197F1F700C000000CC0AEE3B1E0B4
:100F9000E4E3F1E0819191918D939D9391E0EE33A3
:100FA000F907C1F781E0DF91CF911F910F91FF9079
:100FB000EF900895E82FF0E0EE0FFF1FE25CFE4F88
:100FC000808191810895CF92DF92EF92FF920F93EB
:100FD0001F93CF93DF9388E891E00E94E105CEE371
:100FE000EC2EC1E0FC2EC0E0D0E013E8C12E11E0F1
:100FF000D12E0AE711E0DF93CF93DF92CF920E94C8
:101000007A0680E891E00E94E105F70181919191D3
:101010007F010E94D61B9F938F931F930F930E9473
:101020007A0688E791E00E94E10521968DB79EB788
:1010300008960FB6F8949EBF0FBE8DBFC530D10580
:10104000D1F6DF91CF911F910F91FF90EF90DF903C
:10105000CF90089508958091530108959FB7F89413
:1010600010924A019FBF9091C601943009F058C078
:101070009091E9009F702091EC0020FF02C020E8D1
:1010800001C020E0292B94E09093E9009091EB00BF
:1010900090FF43C09091EE0097FF3FC090914801B0
:1010A000992321F09091E80095FF37C010924801F4
:1010B00096E03091E80035FD15C03091C60134301E
:1010C00061F53091EB0035FD28C0915021F481E0AD
:1010D0008093480122C0EFE9FFE03197F1F700C0AB
:1010E0000000E7CF8093F1008091E80085FD0AC001
:1010F0008091E80080FFFCCF8091E8008E7780939C
:10110000E80006C08FB7F89491E090934A018FBF32
:101110002F702093E90080E008952F702093E9005C
:101120008FEF0895CF93DF9300D01F92CDB7DEB736
:101130002091C601243019F523E029839B838A83FB
:101140002093E9008FEF9091E800815095FD06C053
:1011500095ED9A95F1F700008111F5CF8091E800A7
:1011600085FF0DC040E050E063E070E0CE010196E5
:101170000E94350B8091E8008E778093E8000F90F5
:101180000F900F90DF91CF910895CF93DF9300D010
:101190001F92CDB7DEB72091C601243021F522E0A1
:1011A00029839B838A8383E08093E9008FEF90916A
:1011B000E800815095FD06C095ED9A95F1F7000085
:1011C0008111F5CF8091E80085FF0DC040E050E02F
:1011D00063E070E0CE0101960E94350B8091E8003B
:1011E0008E778093E8000F900F900F90DF91CF9152
:1011F00008952091C6012430F1F422E02093E90003
:101200002FEF3091E800215035FD06C035ED3A95BD
:10121000F1F700002111F5CF2091E80025FF0BC068
:1012200040E050E065E070E00E94350B8091E800FE
:101230008E778093E8000895CF93DF93EC0180913F
:10124000C601843039F581E08093E9008FEF9091F9
:10125000E800815095FD06C095ED9A95F1F70000E4
:101260008111F5CF8091E80085FF14C040E050E087
:1012700068E070E0CE010E94350B8091E8008E7727
:101280008093E80088E0FE01ABE4B1E001900D92AC
:101290008A95E1F7DF91CF91089586EE91E00E9463
:1012A000E1058091C501811109C00E94C70C0E940F
:1012B000240D8091E20084608093E200089582EE24
:1012C00091E00E94E1051092C50108958EED91E034
:1012D0000C94E1058AED91E00C94E10586ED91E036
:1012E0000E94E1050C942D1C809149018F5F809331
:1012F000490162E30E945C28911135C010924901B6
:1013000080914A01882379F18091C601843049F5A2
:101310008091E9008F709091EC0090FF02C090E8FE
:1013200001C090E0982B84E08093E9008091EB006D
:1013300080FF14C08091EE0087FF10C08091E8000C
:1013400085FF03C01092F100F9CF8091E80080FF83
:1013500005C08091E8008E778093E8009F7090939D
:10136000E90010924A01089542E061EC81E00E9498
:10137000410C42E061EC82E00E94410C42E061ECF1
:1013800083E00E94410C42E261EC84E00C94410C49
:101390008091C801833009F453C030F4813071F07A
:1013A000823009F48CC008958A3009F478C08B30FB
:1013B00009F45EC0893009F09AC020C08091C7014D
:1013C000813A09F094C08091E800877F8093E8001B
:1013D0008091CB019091CC01892B21F060E080E0DD
:1013E00090E003C068E08BE491E070E00E947E0B27
:1013F0008091E8008B778093E80008958091C70181
:10140000813209F074C08091CB019091CC01892B7D
:1014100009F06DC08091E800877F8093E80080919B
:10142000E80082FD05C08091C6018111F8CF5FC040
:101430008091F100809353018091E8008B7753C035
:101440008091C701813A09F052C08091CB019091FF
:10145000CC01892B09F04BC08091E800877F8093F5
:10146000E8008091E80080FFFCCF80910B0136C03E
:101470008091C7018132D9F58091CB019091CC0147
:10148000892BA9F58091E800877F8093E8000E946E
:10149000760C8091C90180930B010C949215809178
:1014A000C701813221F58091E800877F8093E800B1
:1014B0000E94760C8091CA01809354010895809116
:1014C000C701813AA1F48091E800877F8093E8000A
:1014D0008091E80080FFFCCF809154018093F1005F
:1014E0008091E8008E778093E8000C94760C089544
:1014F00084B7877F84BF88E10FB6F894809360003B
:10150000109260000FBE90E080E80FB6F8948093D0
:101510006100909361000FBE0E942C100E94C70CC6
:101520000E94240D8091E20084608093E2008EE2AC
:1015300098E00E94BF1B78948091C6018430E1F747
:1015400085EC91E00E94E1050E942E1081E091E07F
:101550000E949E0F84EB91E00E94E1058091C601FC
:10156000853089F480EB91E00E94E1050E94F01B38
:101570008091C401882391F30E94181C882371F381
:101580000E941F0BEBCF0E945C10E8CF292F33275E
:1015900023303105A9F06CF42130310509F442C043
:1015A0002230310509F043C084E790E026E032E0C4
:1015B00042C021323105C9F02232310519F137C05C
:1015C00099278130910541F08230910541F0892BB6
:1015D00071F5E2E0F2E005C0E8EFF1E002C0EAEE0A
:1015E000F1E0849190E09F0126C0643000F5E62F81
:1015F000F0E0EE0FFF1FE05EFE4F2081318189E0B9
:1016000090E019C0643098F4E62FF0E0DF01AA0FF3
:10161000BB1FA85EBE4F2D913C91EC5EFE4F8081BA
:1016200090E009C082E190E02AE732E004C080E067
:1016300090E020E030E0FA0131832083089580E1DA
:1016400089BD82E189BD09B400FEFDCF8091D8003B
:101650008F7D8093D8008091E00082608093E000CD
:101660008091E00081FDFCCF0895CF92DF92EF9250
:10167000FF920F931F93CF93DF937C018B01EA01BD
:101680000E94970C811131C0209731F08881998197
:10169000081B190BE80EF91EC12CD12C01151105E0
:1016A00019F18091E80085FD14C08091E8008E77E3
:1016B0008093E800209741F0888199818C0D9D1DD1
:1016C0009983888385E011C00E94970C882331F3A9
:1016D0000CC0F70181917F018093F1000150110945
:1016E000FFEFCF1ADF0ADACF80E0DF91CF911F91B1
:1016F0000F91FF90EF90DF90CF9008952091CD0152
:101700003091CE012617370748F06115710539F47D
:101710002091E8002E772093E80001C0B901FC0178
:1017200020E061157105B9F18091C601882309F4A3
:1017300040C0853009F43FC08091E80083FD3DC082
:101740008091E80082FF06C08091E80082FF26C0F9
:1017500080E008958091E80080FFE3CF2091F300BE
:101760008091F20090E0922B6115710551F0883064
:10177000910538F421912093F1006150710901968F
:10178000F3CF21E0089709F020E08091E8008E7700
:101790008093E800C6CF2111C7CFD6CF8091C60174
:1017A000882339F0853039F08091E80083FFCCCF71
:1017B00004C082E0089583E0089581E008952091B7
:1017C000CD013091CE012617370748F0611571051C
:1017D00039F42091E8002E772093E80001C0B90188
:1017E000FC0120E061157105C1F18091C6018823DB
:1017F00009F441C0853009F440C08091E80083FDC0
:101800003EC08091E80082FF06C08091E80082FF20
:1018100027C080E008958091E80080FFE3CF209109
:10182000F3008091F20090E0922B6115710559F060
:101830008830910540F424912093F1003196615055
:1018400071090196F2CF21E0089709F020E080911C
:10185000E8008E778093E800C5CF2111C6CFD5CFA1
:101860008091C601882339F0853039F08091E800F5
:1018700083FFCBCF04C082E0089583E0089581E028
:101880000895982F973058F59093E900981739F0FC
:101890007091EC002091ED005091F00003C0242FD6
:1018A000762F50E021FF19C03091EB003E7F30933E
:1018B000EB003091ED003D7F3093ED003091EB0077
:1018C00031603093EB007093EC002093ED00509367
:1018D000F0002091EE0027FF07C09F5FD3CF8F70ED
:1018E0008093E90081E0089580E008958091C70128
:1018F00087FD05C08091E80080FF0EC012C0809176
:10190000E80082FD05C08091C6018111F8CF0895DD
:101910008091E8008B7708C08091C6018111EACFE1
:1019200008958091E8008E778093E8000895809173
:10193000E4009091E50045E62091EC0020FF21C0F5
:101940002091E80020FD21C02091C601222389F0CA
:10195000253089F02091EB0025FD0FC02091E40097
:101960003091E5002817390739F3415041F0C9019A
:10197000E3CF82E0089583E0089581E0089584E054
:1019800008952091E80022FFDFCF80E008950E94B3
:10199000350D0E943D0DE0EEF0E080818160808396
:1019A000E8EDF0E080818F77808319BCA7EDB0E08F
:1019B0008C918E7F8C9380818F7E80831092C50165
:1019C00008950F931F93CF93DF930E94350D0E94CC
:1019D0003D0DC8EDD0E088818F778883888180684D
:1019E000888388818F7D888319BC1092C6011092EC
:1019F000C2011092C4011092C30100EE10E0F80180
:101A000080818B7F808388818160888342E060E071
:101A100080E00E94410CE1EEF0E080818E7F8083C7
:101A2000E2EEF0E080818160808380818860808345
:101A3000F80180818E7F8083888180618883DF9137
:101A4000CF911F910F910895E8EDF0E080818F7E96
:101A50008083E7EDF0E080818160808384E082BF55
:101A600081E08093C5010C94E10CE8EDF0E0808109
:101A70008E7F80831092E20008951092DA00109217
:101A8000E10008951F920F920FB60F9211242F9329
:101A90003F934F935F936F937F938F939F93AF93F6
:101AA000BF93EF93FF938091E10082FF0BC0809181
:101AB000E20082FF07C08091E1008B7F8093E1000C
:101AC0000E9474098091DA0080FF1FC08091D800C5
:101AD00080FF1BC08091DA008E7F8093DA008091B6
:101AE000D90080FF0DC080E189BD82E189BD09B4C4
:101AF00000FEFDCF81E08093C6010E944D0905C024
:101B000019BC1092C6010E945F098091E10080FF1C
:101B100019C08091E20080FF15C08091E2008E7FA5
:101B20008093E2008091E20080618093E2008091E6
:101B3000D80080628093D80019BC85E08093C601EC
:101B40000E946A098091E10084FF30C08091E20028
:101B500084FF2CC080E189BD82E189BD09B400FE0B
:101B6000FDCF8091D8008F7D8093D8008091E100D7
:101B70008F7E8093E1008091E2008F7E8093E2006F
:101B80008091E20081608093E2008091C20188230D
:101B900011F084E007C08091E30087FF02C083E07A
:101BA00001C081E08093C6010E946E098091E1002E
:101BB00083FF29C08091E20083FF25C08091E1006E
:101BC000877F8093E10082E08093C6011092C2017A
:101BD0008091E1008E7F8093E1008091E2008E7F12
:101BE0008093E2008091E20080618093E20042E015
:101BF00060E080E00E94410C8091F000886080935A
:101C0000F0000E946609FF91EF91BF91AF919F9103
:101C10008F917F916F915F914F913F912F910F9095
:101C20000FBE0F901F9018951F920F920FB60F9234
:101C300011242F933F934F935F936F937F938F93D1
:101C40009F93AF93BF93CF93EF93FF93C091E9001E
:101C5000CF708091EC001092E9008091F000877FB6
:101C60008093F00078940E94500E1092E9008091C9
:101C7000F00088608093F000C093E900FF91EF913D
:101C8000CF91BF91AF919F918F917F916F915F9114
:101C90004F913F912F910F900FBE0F901F9018956D
:101CA0001F93CF93DF93CDB7DEB7AA970FB6F89403
:101CB000DEBF0FBECDBFE7ECF1E08091F100819374
:101CC00021E0EF3CF207C9F70E94C8098091E800C3
:101CD00083FF1CC12091C7013091C801832F90E080
:101CE0008A30910508F012C1FC01EA5AFF4F0C94AA
:101CF0007C28203881F0223809F008C18091CB017E
:101D00008F708093E9008091EB0085FB882780F934
:101D10001092E90006C08091C3019091C401911115
:101D200082609091E800977F9093E8008093F100A3
:101D30001092F100C5C0822F8D7F09F0E7C02223E9
:101D400019F0223061F0E2C08091C901813009F0C0
:101D5000DDC0333009F080E08093C40128C0809159
:101D6000C901811124C02091CB012F7009F4CEC08C
:101D70002093E9008091EB0080FF19C08091EB0077
:101D8000333011F4806211C080618093EB0081E0F8
:101D900090E0022E01C0880F0A94EAF78093EA00CF
:101DA0001092EA008091EB0088608093EB00109223
:101DB000E9008091E800877F86C02111A7C01091BB
:101DC000C9011F778091E3008078812B8093E30025
:101DD0008091E800877F8093E8000E94760C8091D4
:101DE000E80080FFFCCF8091E30080688093E300EF
:101DF000112311F083E001C082E08093C60186C008
:101E00002058223008F082C08091C9019091CA0107
:101E10008C3D23E0920779F583E08A838AE2898307
:101E20004FB7F894DE01139620E03EE051E2E32F35
:101E3000F0E050935700E49120FF03C0E295EF706B
:101E40003F5FEF708E2F90E0EA3010F0C79601C030
:101E5000C0968D939D932F5F243149F74FBF80919A
:101E6000E800877F8093E8006AE270E0CE01019687
:101E70000E947E0B14C0AE014F5F5F4F6091CB019B
:101E80000E94C60A009709F441C02091E800277F0C
:101E90002093E800BC0189819A810E94DF0B809128
:101EA000E8008B778093E80031C0203879F5809185
:101EB000E800877F8093E8008091C2018093F10061
:101EC0008091E8008E778093E8000E94760C1EC017
:101ED00021111CC09091C9019230C0F48091E8009A
:101EE000877F8093E8009093C2010E94760C8091D6
:101EF000C201811104C08091E30087FF02C084E029
:101F000001C081E08093C6010E94B4098091E8007D
:101F100083FF0AC08091E800877F8093E80080916A
:101F2000EB0080628093EB00AA960FB6F894DEBFB8
:101F30000FBECDBFDF91CF911F91089590935A01AD
:101F4000809359010895E0915901F0915A01309719
:101F500021F00190F081E02D099480E00895FF9236
:101F60000F931F93CF93DF938C01E0915901F09170
:101F70005A01309799F10280F381E02D0995809103
:101F8000B10182FF2BC080FF04C086E793E00E946E
:101F9000E105E80188E0F82E00E713E08091B10147
:101FA00080FF0BC088811F928F931F930F930E9415
:101FB0007A060F900F900F900F90FA942196F110DF
:101FC000EDCF8091B10180FF09C08EE693E0DF91F3
:101FD000CF911F910F91FF900C94E105DF91CF916C
:101FE0001F910F91FF900895E0915901F0915A01CE
:101FF000309721F00480F581E02D09940895209117
:102000005701309158018217930771F0909358014E
:1020100080935701E0915901F0915A01309721F0D6
:102020000680F781E02D09940895209155013091A3
:1020300056018217930771F09093560180935501D2
:10204000E0915901F0915A01309721F00084F18517
:10205000E02D0994089508950C942B100E94581CAB
:102060000E94A2060C94141ECF93C82F8091B10138
:1020700082FF1EC080FF04C08FE893E00E94E1054C
:102080008091B10180FF0CC01F92CF932AE833E00A
:102090003F932F930E947A060F900F900F900F900E
:1020A0008091B10180FF04C088E893E00E94E105BF
:1020B0008C2FCF910C942A085F926F927F928F920F
:1020C0009F92AF92BF92CF92DF92EF92FF920F93C7
:1020D0001F93CF93DF93CDB7DEB72A970FB6F8944F
:1020E000DEBF0FBECDBF0E94C6069CE5C92E91E0A3
:1020F000D92E00E010E0AA24A394B12C502E802FFA
:102100000E94DA073C01F601E190F1906F01E826A8
:10211000F926E114F104B1F40F5F1F4F05301105EA
:1021200069F78FEF89838A831B820E94611C81601B
:10213000782F9D838C8349815A816B818D810E9488
:1021400015113AC08091B10181FD0E94E30720E0A2
:1021500030E04501022E02C0880C991C0A94E2F777
:10216000C4018E219F21892B09F12E835F82682073
:10217000792081E0672809F480E088870E94611C4B
:102180008160782F9A8789874E815F8168858A85EB
:102190000E941511F801EE0FFF1FE45AFE4F8081D7
:1021A0009181882599259183808306C02F5F3F4FB9
:1021B0002F30310571F6B0CF0E94922110915B0152
:1021C0000E94A30F1817D9F00E94A30F80935B0100
:1021D0002A960FB6F894DEBF0FBECDBFDF91CF9128
:1021E0001F910F91FF90EF90DF90CF90BF90AF9035
:1021F0009F908F907F906F905F900C9434102A96F0
:102200000FB6F894DEBF0FBECDBFDF91CF911F9107
:102210000F91FF90EF90DF90CF90BF90AF909F9085
:102220008F907F906F905F900895CF93DF93CDB79D
:10223000DEB72B970FB6F894DEBF0FBECDBF4F832E
:10224000588769877A878B87DE01119686E0FD01C2
:1022500011928A95E9F785E0FE01379601900D927B
:102260008A95E1F749815A816B817C818D819E81BC
:102270000E945E182B960FB6F894DEBF0FBECDBF3E
:10228000DF91CF910895CF93C82F882309F4CCC054
:10229000823859F40E94A30F81FDC6C089E30E94D1
:1022A000181B0E94991B89E30CC0833879F40E94A3
:1022B000A30F80FDB9C083E50E94181B0E94991BE3
:1022C00083E50E94391BCF910C94991B843859F4F3
:1022D0000E94A30F82FDA8C087E40E94181B0E94E1
:1022E000991B87E4EECF8CEF8C0F813A48F48C2F4A
:1022F0000E94E825811198C08C2F0E94181BE3CF03
:1023000080E28C0F883048F4C77081E001C0880FEC
:10231000CA95EAF70E945D1BD6CF8BE58C0F833000
:1023200078F4C53A29F0C63A31F482E890E005C065
:1023300081E890E002C083E890E0CF910C94FF0F19
:1023400088E58C0F853108F06FC0C83A61F1C93A51
:1023500069F1CA3A71F1CB3A79F1CC3A81F1CD3ACF
:1023600089F1CE3A91F1CF3A99F1C13BA1F1C03B4D
:10237000A9F1C23BB1F1C33BB9F1C43BC1F1C53BCB
:10238000C9F1C63BD1F1C73BD9F1C83BE1F1C93B2B
:10239000E9F1CA3BF1F1CB3BF9F1CC3B09F03FC08D
:1023A0008AE292E03EC082EE90E03BC089EE90E08F
:1023B00038C08AEE90E035C085EB90E032C086EB05
:1023C00090E02FC083EB90E02CC084EB90E029C01C
:1023D00087EB90E026C08CEC90E023C08DEC90E081
:1023E00020C083E891E01DC08AE891E01AC082E92C
:1023F00091E017C084E991E014C081E292E011C03D
:1024000083E292E00EC084E292E00BC085E292E0AB
:1024100008C086E292E005C087E292E002C080E058
:1024200090E0CF910C941510CF910895882309F472
:102430004BC0823859F40E94A30F81FF45C089E345
:102440000E94181B0E94991B89E30CC0833871F409
:102450000E94A30F80FF38C083E50E94181B0E94D2
:10246000991B83E50E94391B0C94991B843859F4FD
:102470000E94A30F82FF28C087E40E94181B0E94BD
:10248000991B87E4EFCF9CEF980F913A58F390E2B5
:10249000980F983050F4877091E001C0990F8A9599
:1024A000EAF7892F0E94631BDFCF9BE5980F9330DB
:1024B00020F480E090E00C94FF0F885A853120F4DE
:1024C00080E090E00C9415100895882321F00E947C
:1024D0005D1B0C94991B0895882321F00E94631BB7
:1024E0000C94991B0895CF92DF92EF92FF920F9375
:1024F0001F93CF93DF93CDB7DEB728970FB6F8942D
:10250000DEBF0FBECDBF8C0185E0F801DE01119664
:1025100001900D928A95E1F7F80140813181F280B6
:10252000258122952F7083819481892B31F03F3F43
:1025300031F481E04F3F19F403C081E001C080E035
:1025400080FDCFC249833A8389819A812F830E947B
:10255000D61A9E8388870E94D51A0E94A8194E8198
:10256000E42FE295EF70F0E0E05AFF4F2F8168858D
:102570000C947C28842F807F142F1F70882311F0E7
:102580001295107FFF2059F0112309F45FC2812FAB
:1025900068870E94701B0E94991B688557C2862F0E
:1025A0000E941612112309F49CC2812F0E94761BEF
:1025B00028960FB6F894DEBF0FBECDBFDF91CF9146
:1025C0001F910F91FF90EF90DF90CF900C94991B8B
:1025D000842F807F942F9F70E92E803219F0E2942F
:1025E00080EFE822662319F0613001F129C0FF2055
:1025F000A9F08E2D222349F1213039F528960FB606
:10260000F894DEBF0FBECDBFDF91CF911F910F9128
:10261000FF90EF90DF90CF900C94801B222319F055
:10262000213009F45EC20E94831B2CC0FF20E9F018
:10263000263008F056C20E945A1B8E2129F022C073
:10264000FF20F1F0211115C08E2D28960FB6F894B9
:10265000DEBF0FBECDBFDF91CF911F910F91FF90D5
:10266000EF90DF90CF900C946512253008F039C2BE
:1026700009C0F801858180FFE9C18F708583E4CFAF
:102680002111F8C18E2D66C1242F26952695237021
:1026900030E02115310521F021303105C9F021C28A
:1026A000FF2021F0862F942F937002C080E090E0ED
:1026B00028960FB6F894DEBF0FBECDBFDF91CF9145
:1026C0001F910F91FF90EF90DF90CF900C94FF0F30
:1026D000FF2021F0862F942F937002C080E090E0BD
:1026E00028960FB6F894DEBF0FBECDBFDF91CF9115
:1026F0001F910F91FF90EF90DF90CF900C941510E9
:10270000862FFF2019F00E94182002C00E9480200E
:1027100028960FB6F894DEBF0FBECDBFDF91CF91E4
:102720001F910F91FF90EF90DF90CF900C940521B7
:10273000842F837009F076C0F110D3C1262F229523
:1027400026952770220F220F862F8F70C82ED12C2E
:10275000E12CF12C022E04C0CC0CDD1CEE1CFF1C65
:102760000A94D2F764FF10C06FE070E080E090E060
:1027700004C0660F771F881F991F2A95D2F76095AE
:1027800070958095909503C060E070E0CB01242F98
:10279000269526952370422F50E042305105D1F006
:1027A0004330510559F16C297D298E299F294130EB
:1027B000510541F128960FB6F894DEBF0FBECDBF8C
:1027C000DF91CF911F910F91FF90EF90DF90CF900D
:1027D0000C94CD196C297D298E299F2928960FB636
:1027E000F894DEBF0FBECDBFDF91CF911F910F9147
:1027F000FF90EF90DF90CF900C94E7190E94CD19D5
:10280000C701B60128960FB6F894DEBF0FBECDBF44
:10281000DF91CF911F910F91FF90EF90DF90CF90BC
:102820000C94B319FF2019F0842F817001C0869594
:10283000882309F456C1262F229526952770220F4A
:10284000220F862F8F70C82ED12CE12CF12C022E56
:1028500004C0CC0CDD1CEE1CFF1C0A94D2F764FFF4
:1028600010C06FE070E080E090E004C0660F771F5A
:10287000881F991F2A95D2F760957095809590953D
:1028800003C060E070E0CB01242F269526952370CD
:10289000422F50E042305105D1F04330510559F1FB
:1028A0006C297D298E299F294130510541F12896B7
:1028B0000FB6F894DEBF0FBECDBFDF91CF911F9151
:1028C0000F91FF90EF90DF90CF900C94A11A6C299C
:1028D0007D298E299F2928960FB6F894DEBF0FBE5A
:1028E000CDBFDF91CF911F910F91FF90EF90DF90BF
:1028F000CF900C94BB1A0E94A11AC701B60128966A
:102900000FB6F894DEBF0FBECDBFDF91CF911F9100
:102910000F91FF90EF90DF90CF900C94871A603F5B
:1029200049F118F4603E48F48CC0623F09F451C08C
:10293000E0F1633F09F461C084C0162F1F70842F3B
:102940008F71FF2021F00E94201A812F7ECE0E94DD
:10295000411A812F28960FB6F894DEBF0FBECDBF67
:10296000DF91CF911F910F91FF90EF90DF90CF906B
:102970000C946C12FF20A9F0253008F0B2C0842F0F
:102980008F7128960FB6F894DEBF0FBECDBFDF91D2
:10299000CF911F910F91FF90EF90DF90CF900C940B
:1029A000661A263008F09DC0EACFFF20A1F0842FE0
:1029B0008F7128960FB6F894DEBF0FBECDBFDF91A2
:1029C000CF911F910F91FF90EF90DF90CF900C94DB
:1029D000201AFF2061F3842F8F7128960FB6F89488
:1029E000DEBF0FBECDBFDF91CF911F910F91FF9042
:1029F000EF90DF90CF900C94411AFF2091F0842F3C
:102A00008F7128960FB6F894DEBF0FBECDBFDF9151
:102A1000CF911F910F91FF90EF90DF90CF900C948A
:102A20000B1A28960FB6F894DEBF0FBECDBFDF910C
:102A3000CF911F910F91FF90EF90DF90CF900C946A
:102A4000011AFF20A1F0222309F4B1CF862F289686
:102A50000FB6F894DEBF0FBECDBFDF91CF911F91AF
:102A60000F91FF90EF90DF90CF900C9443112223B1
:102A700009F4B1CF862F28960FB6F894DEBF0FBEAB
:102A8000CDBFDF91CF911F910F91FF90EF90DF901D
:102A9000CF900C9416124F70C8010E94B61D289654
:102AA0000FB6F894DEBF0FBECDBFDF91CF911F915F
:102AB0000F91FF90EF90DF90CF900C940B194F7017
:102AC000C80128960FB6F894DEBF0FBECDBFDF91C8
:102AD000CF911F910F91FF90EF90DF90CF900C94CA
:102AE000B91D28960FB6F894DEBF0FBECDBFDF919B
:102AF000CF911F910F91FF90EF90DF90CF900895AD
:102B00000E947D1B0E944C1B0E94991B0E94332235
:102B10000E94052180E090E00E94FF0F80E090E09D
:102B20000C9415100E946D1B0C9480150E94D61AEF
:102B3000292F22952F7030E02C3031054CF42A30AB
:102B400031056CF4225031092230310590F407C070
:102B50002C30310551F02F30310539F00AC0803E5C
:102B600010F0803F31F481E0089593FB882780F9CD
:102B7000089580E00895CF93DF9300D000D01F9296
:102B8000CDB7DEB70F900F900F900F900F90DF91A1
:102B9000CF910895CF93DF9300D000D000D0CDB770
:102BA000DEB726960FB6F894DEBF0FBECDBFDF911D
:102BB000CF9108951F93CF93DF93C091660116E0E4
:102BC00080916701C81799F0D0E01C9FF0011D9F0C
:102BD000F00D1124E859FE4F4081518162817381CB
:102BE000848195810E94CA152196C770E9CFDF9133
:102BF000CF911F9108954091980150919901609152
:102C00009A0170919B0180919C0190919D010C947F
:102C1000CA15CF9380919D0182958F7009F05FC096
:102C200080919A01882309F45AC020916601A091ED
:102C30006701609198017091990180919B01909139
:102C40009C0131E06F3F09F030E0B32FC6E02A1756
:102C500009F445C0009721F07F3F21F44B2F03C0BA
:102C600041E001C040E030E040FD35C0C29FF001CE
:102C7000C39FF00D1124E859FE4F418174132BC0FE
:102C80004081641328C04281411125C04381548191
:102C90004817590710F441505109481B590B483C3B
:102CA0005105C8F480919D018F70806180939D01D2
:102CB00086E0829FF001839FF00D1124E359FE4FBF
:102CC00080818F708061808388E991E00E94731217
:102CD000CF910C94DA152F5F3F4F2770B8CFCF916B
:102CE0000895CF92DF92EF92FF920F931F93CF93AD
:102CF000DF93CDB7DEB762970FB6F894DEBF0FBE95
:102D0000CDBF8C0185E0F801DE011D9601900D928A
:102D10008A95E1F7D8014C9111965C911197129622
:102D20006C9112971396ED90FC9014977091980106
:102D3000E091990120919B0130919C012115310571
:102D400031F0EF3F31F481E07F3F19F403C081E0BF
:102D500001C080E0B82FB170CB2E80FD6CC1D09047
:102D60009A01DD2009F4F5C0F0919D01E216F30609
:102D700038F0C701821B930B883C910548F09BC03B
:102D8000209530952E0D3F1D283C310508F093C04D
:102D90008F2F807F09F052C0E51314C0741312C046
:102DA000D62E61110FC0FF70F061F0939D010E945B
:102DB000FB1588E991E00E94731280919D01F80152
:102DC00085836CC1EF2831F05F3F31F481E04F3FE4
:102DD00019F403C081E001C080E080FD03C081E000
:102DE000862701C080E0F82FF170FF2E80FF1CC005
:102DF000809166012091670136E0821709F428C1AD
:102E000090E0389FF001399FF00D1124E859FE4FF2
:102E10007181571306C07081471303C07281671315
:102E200003C001968770E9CFD62E662309F436C118
:102E300080919D01816080939D0153C0E51308C07E
:102E4000741306C0611104C0D8011596FC93AEC07E
:102E50004D875E878D859E856A8B0E9496156A894F
:102E6000882329F1D62E662311F120919D01822F0E
:102E700082958F7090E002970CF460C08091980169
:102E80009091990198878F831986FB86EA862C8713
:102E9000CE01079651C0E51731F14D875E878D85CC
:102EA0009E856A8B0E9496156A8981112EC0C80181
:102EB0000E947312A4C08F2F807F69F77E2DF98A3C
:102EC000E88A89890E94BB1588E991E00E94731203
:102ED000E8E9F1E086E0DF011D928A95E9F70E94BA
:102EE000FB15D12CDBC07413D8CF6111D6CFD8011C
:102EF0001596FC93C8010E947312E8E9F1E086E0A0
:102F0000DF011D928A95E9F7C9C0D62E662379F2B2
:102F100020919D01822F82958F7090E0029774F02E
:102F200080919801909199019A8389831B82FD82F7
:102F3000EC822E83CE0101960E94731286E0F80186
:102F4000A8E9B1E001900D928A95E1F70E94091677
:102F50006FC0E216F30628F0C701821B930B9C0199
:102F600004C0209530952E0D3F1D283C310508F0FA
:102F700052C0D62E662309F49ACFE5132CC07413E1
:102F80002AC080919D0180FD1DC0982F92959F7051
:102F9000C9F0D80115968C9315979F3039F09F5F33
:102FA0009295907F8F70892B15968C93C8010E9403
:102FB000731286E0F801A8E9B1E001900D928A95BC
:102FC000E1F736C086E0F801A8E9B1E001900D9282
:102FD0008A95E1F763C04D875E878D859E850E9447
:102FE0009615882379F086E0F801A8E9B1E0019010
:102FF0000D928A95E1F70E9409160E94FB15DD24C7
:10300000D3944CC080919D01816080939D01C80143
:103010000E94731243C07E2DF98AE88A89890E9432
:10302000BB15E8E9F1E086E0DF011D928A95E9F73A
:103030000E94FB1533C0662309F439CF4D875E87A4
:103040008D859E850E949615882309F430CFCBCFBD
:103050004D875E878D859E850E94D61A292F2295E1
:103060002F7030E0223031052CF49F7041F0811137
:1030700006C00CC0243031052CF49F7049F4805EEA
:10308000883020F0C8010E947312CF2CDC2C06C0BF
:10309000D80115969C91907F91F7F8CF8D2D62966F
:1030A0000FB6F894DEBF0FBECDBFDF91CF911F9159
:1030B0000F91FF90EF90DF90CF9008951F93CF93E3
:1030C000DF93CDB7DEB72C970FB6F894DEBF0FBEF7
:1030D000CDBF4F83588769877A878B879C87CE01BE
:1030E00007960E9471168823C1F02F8138858A8542
:1030F0009B85892B31F03F3F11F080E003C02F3FCB
:10310000E1F781E0811147C04F81588569857A8553
:103110008B859C850E94CA153EC086E0FE013796CD
:10312000DE01119601900D928A95E1F7FF81E88505
:103130004A855B854115510531F0EF3F31F481E05F
:10314000FF3F19F403C081E001C080E080FD23C08F
:103150002091670130E0C90101968770992760913D
:10316000660170E086179707F1F1F983EA835D83C2
:103170004C8396E0929FD001939FB00D1124A859E3
:10318000BE4FFE01319601900D929A95E1F7809322
:1031900067010E94DA1516E080916601909167013F
:1031A000891779F1189FC001112488599E4F0E94F8
:1031B0007116882331F1E09166011E9FF001112400
:1031C000E859FE4F408151816281738184819581EC
:1031D0000E94CA158091660190E001968770992738
:1031E00080936601D9CF0E949215109267011092C8
:1031F0006601E8E9F1E086E0DF011D928A95E9F7D2
:10320000CACF2C960FB6F894DEBF0FBECDBFDF91AC
:10321000CF911F910895DF92EF92FF920F931F932A
:10322000CF93DF93FC01009709F48AC0E12CF12CC5
:10323000DD24D394EF0121968491853709F461C090
:1032400058F4843708F04EC0843008F06AC08130EA
:10325000D1F0823071F174C0883709F45DC050F448
:10326000863709F455C0873709F06AC08E2D0E9451
:103270006A1B54C09CE7980F903708F061C08F77A5
:103280000E94161250C08F010E5F1F4FFE018491E5
:1032900090E2980F983050F48770FD2D01C0FF0F19
:1032A0008A95EAF78F2F0E94701B15C00E94431168
:1032B00014C08F010E5F1F4FFE01849190E2980FA2
:1032C000983068F48770FD2D01C0FF0F8A95EAF7EA
:1032D0008F2F0E94761B0E94991BE80124C00E9438
:1032E0001612FBCF9F012E5F3F4FFE01C491CC23EE
:1032F00069F08FE99FE00197F1F700C00000C1502D
:10330000F6CF9F012E5F3F4FFE01F490E9010BC005
:103310000E945A1BE82E07C00E946D1B0E94991B39
:1033200002C00E9443119F2D992341F0EFE9FFE075
:103330003197F1F700C000009150F6CFFE017ACF2F
:10334000DF91CF911F910F91FF90EF90DF90089543
:1033500008956093A2017093A3018093A4019093B8
:10336000A5010C9480150F931F930091A201109159
:10337000A3012091A4013091A501062B172B282B26
:10338000392B0093A2011093A3012093A401309341
:10339000A5011F910F910C9480150F931F9300911D
:1033A000A2011091A3012091A4013091A50106234F
:1033B0001723282339230093A2011093A3012093FC
:1033C000A4013093A5011F910F910C9480150F93C8
:1033D0001F930091A2011091A3012091A4013091AB
:1033E000A50106271727282739270093A201109344
:1033F000A3012093A4013093A5011F910F910C9478
:10340000801510929E0110929F011092A0011092BF
:10341000A1010C94801541E050E060E070E004C030
:10342000440F551F661F771F8A95D2F740939E0160
:1034300050939F016093A0017093A1010C9480159B
:1034400041E050E060E070E004C0440F551F661F8B
:10345000771F8A95D2F780919E0190919F01A0914C
:10346000A001B091A101842B952BA62BB72B8093A3
:103470009E0190939F01A093A001B093A1010C9491
:10348000801541E050E060E070E004C0440F551F3B
:10349000661F771F8A95D2F7409550956095709575
:1034A00080919E0190919F01A091A001B091A101F6
:1034B00084239523A623B72380939E0190939F0195
:1034C000A093A001B093A1010C94801541E050E0BD
:1034D00060E070E004C0440F551F661F771F8A9597
:1034E000D2F780919E0190919F01A091A001B0918F
:1034F000A10184279527A627B72780939E01909343
:103500009F01A093A001B093A1010C9480150F938B
:103510001F9300919E0110919F012091A001309175
:10352000A101062B172B282B392B00939E011093FA
:103530009F012093A0013093A1011F910F910C9442
:1035400080150F931F9300919E0110919F01209170
:10355000A0013091A10106231723282339230093CA
:103560009E0110939F012093A0013093A1011F9110
:103570000F910C9480150F931F9300919E01109151
:103580009F012091A0013091A1010627172728272C
:10359000392700939E0110939F012093A00130933F
:1035A000A1011F910F910C9480150895CF92DF9285
:1035B000EF92FF920F931F93CF93DF93EC01C09094
:1035C000A201D090A301E090A401F090A501809108
:1035D0009E0190919F01A091A001B091A101C82AE4
:1035E000D92AEA2AFB2A0FE110E0B701A601002E32
:1035F00004C076956795579547950A94D2F740FF92
:1036000007C0BE01802F0E94431D8130910539F40F
:103610000150110950F7BE0180E00E94431DDF9167
:10362000CF911F910F91FF90EF90DF90CF90089571
:1036300040910C0150910D0120E030E09FEFFA0124
:10364000E20FF31F6281681799F09F3F19F461112F
:1036500001C0922F2F5F3F4F2630310581F79F3FEA
:1036600039F0FA01E90FF11D97FDFA95828308956B
:10367000089540910C0150910D0120E030E0FA01D5
:10368000E20FF31F9281981301C012822F5F3F4F08
:1036900026303105A1F7089581E090E0E0910C011A
:1036A000F0910D01E80FF91F108201968830910505
:1036B000A9F708958091B00108959091B001982BD9
:1036C0009093B001089580959091B00198239093C4
:1036D000B00108958093B00108951092B00108954B
:1036E0009091AF01982B9093AF01089580959091A0
:1036F000AF0198239093AF0108951092AF01089500
:103700008093A60108951092A601089540910C019E
:1037100050910D0120E030E080E0FA01E20FF31F4C
:10372000918191118F5F2F5F3F4F27303105A9F7AE
:103730000895E0910C01F0910D018091B00180831A
:10374000E0910C01F0910D0180819091AF01892BE6
:1037500080839091A601992361F0E0910C01F09192
:103760000D018081892B80830E94861B811110921C
:10377000A60180910C0190910D010C94AF0F9093D4
:1037800033018093320108958295982F9C7C969501
:103790009695837344E0849F90011124922B892F86
:1037A0008A7A86959575990F892B08951F93CF93E3
:1037B000DF931F92CDB7DEB799830E94C41B182FE9
:1037C0009981892F0E94C41B212F30E0322F22279C
:1037D000A901482BCA010F90DF91CF911F91089545
:1037E0008091C601843009F11092B20120E488E191
:1037F00090E00FB6F894A895809360000FBE2093D8
:10380000600083B7817F846083BF83B7816083BF9B
:103810007894889583B78E7F83BF88E10FB6F8943C
:1038200080936000109260000FBE0895089508957F
:10383000CF930E94161C0E94C6060E94171CC0E06F
:103840008C2F0E94DA07892B29F4CF5FC530C1F78E
:1038500080E001C081E0CF9108950C9492151F92F1
:103860000F920FB60F9211248F939F93AF93BF9334
:103870008091B201811113C08091B3019091B40184
:10388000A091B501B091B6014196A11DB11D8093E3
:10389000B3019093B401A093B501B093B601BF9169
:1038A000AF919F918F910F900FBE0F901F90189521
:1038B00082E084BD93E095BD9AEF97BD80936E0042
:1038C00008952FB7F8948091B3019091B401A0911D
:1038D000B501B091B6012FBF08952FB7F89460914C
:1038E000B3017091B4018091B5019091B6012FBFE1
:1038F0000895CF92DF92EF92FF920F931F932FB70D
:10390000F8944091B3015091B4016091B501709168
:10391000B6012FBF6A017B01EE24FF248C0120E059
:1039200030E0C016D106E206F30610F4415051090A
:10393000481B590BCA011F910F91FF90EF90DF9028
:10394000CF9008951F920F920FB60F9211248F936C
:103950009F93AF93BF938091B3019091B401A091D5
:10396000B501B091B6010196A11DB11D8093B301BF
:103970009093B401A093B501B093B601BF91AF91FC
:103980009F918F910F900FBE0F901F9018950E94DE
:10399000C70CF8942FEF87EA91E6215080409040C1
:1039A000E1F700C0000087E090EBDC018093D001DC
:1039B0009093D101A093D201B093D3012CE088E180
:1039C00090E00FB6F894A895809360000FBE209306
:1039D0006000FFCF8F3A58F4883A58F5853A10F5D1
:1039E0008430F0F48130A1F581E090E00895883EC4
:1039F00090F4803EA8F48F3B59F50E9492152FEF6A
:103A000080E792E0215080409040E1F700C0000044
:103A10000E94C71C1DC0803FD8F090E090650895BB
:103A200090E00895853AB9F0863AC1F482E890E4CE
:103A30000895883AB1F0893AB9F08A3AC1F08B3AE0
:103A4000C9F08C3AD1F08D3AD9F483EB94E408951F
:103A500080E090E0089581E890E4089583E890E4A0
:103A6000089582EE94E4089589EE94E408958AEE30
:103A700094E4089585EB94E4089586EB94E4089526
:103A800084EB94E408950E948306803EA8F4803C71
:103A900000F5813309F45CC038F4893209F452C06E
:103AA0008A3209F45BC05FC08933B1F08238A1F07B
:103AB000853309F441C057C0833E41F128F4803E6C
:103AC00099F0823EB9F04FC0863E31F1873E71F1E8
:103AD0004AC00E94920608959091CF0190FD02C0C5
:103AE00091FF41C080EE3FC08091CF0180FFFACFAF
:103AF00089E339C08091CF0182FF0CC08091CF0152
:103B000084FF02C080E02FC083EE2DC08091CF01E2
:103B100082FFF4CF82EE27C08091CF0183FF0AC0DD
:103B20008091CF0184FDEECF87EE1DC08091CF0143
:103B300083FFF6CF86EE17C08091CF0185FF06C0C8
:103B400089E211C08091CF0185FFFACF85E30BC0D8
:103B50008091CF0186FF06C08AE205C08091CF0127
:103B600086FFFACF81E30E94EA1C089580E090E08E
:103B700008950895BF92CF92DF92EF92FF920F9334
:103B80001F93CF93DF938C01B12CEE24E394F12C9F
:103B90008B2D0E94DA076C01C0E0D0E097010C2E5B
:103BA00002C0220F331F0A94E2F72C213D21232B60
:103BB000B1F06C2F7B2D80E00E94431D9C0180178B
:103BC000910759F0832F807E932F907C11F0803ADB
:103BD00031F430E02017310711F481E009C021965B
:103BE000CF30D105D9F6B39485E0B812D1CF80E0BB
:103BF000DF91CF911F910F91FF90EF90DF90CF90C9
:103C0000BF900895CF93DF93EC018CE290E00E9487
:103C1000BA1D882329F0CE01DF91CF910C94BA1DF3
:103C200080E0DF91CF910895CF930E94711F8111A1
:103C300002C00E94571F89EA93E00E94E105C5E691
:103C4000C15049F00E94C6068FE39CE90197F1F745
:103C500000C00000F5CF82EA93E00E94E10589E20E
:103C600090E00E94021E811120C18AE290E00E9431
:103C7000021E81110E94571F85E090E00E94021EE3
:103C800081110E94C71C0E947C1F8093B10187E0B4
:103C900090E00E94021E8823B1F18BE190E00E9427
:103CA000021E882351F09091B10191FB882780F981
:103CB00021E0822780FB91F924C08EE090E00E94F1
:103CC000021E882351F09091B10192FB882780F960
:103CD00021E0822780FB92F914C080E190E00E94ED
:103CE000021E9091B101882341F093FB882780F94F
:103CF00021E0822780FB93F904C0892F809580FB07
:103D000090F99093B1018091B1010E94801F0E94AF
:103D10008E1F8093CF0180EE90E00E94021E8823C8
:103D200041F08091CF01982F909590FB80F980937E
:103D3000CF0189E390E00E94021E882359F0909100
:103D4000CF0191FB882780F921E0822780FB91F940
:103D50009093CF0182EE90E00E94021E882359F0DA
:103D60009091CF0192FB882780F921E0822780FB88
:103D700092F99093CF0186EE90E00E94021E882374
:103D800059F09091CF0193FB882780F921E0822799
:103D900080FB93F99093CF0183EE90E00E94021E86
:103DA000882359F09091CF0194FB882780F921E076
:103DB000822780FB94F99093CF0185E390E00E94E5
:103DC000021E882359F09091CF0195FB882780F936
:103DD00021E0822780FB95F99093CF0181E390E069
:103DE0000E94021E882359F09091CF0196FB8827EC
:103DF00080F921E0822780FB96F99093CF0181E141
:103E000090E00E94021E882359F09091CF0197FB09
:103E1000882780F921E0822780FB97F99093CF01D2
:103E20008091CF010E94921F87E290E00E94021EC3
:103E3000C82F8EE190E00E94021E8111C2608FE1C6
:103E400090E00E94021E8111C46080E290E00E9416
:103E5000021E8111C86081E290E00E94021E811161
:103E6000C06182E290E00E94021E8111C06283E282
:103E700090E00E94021E8111C06484E290E00E94E2
:103E8000021E882311F0C06802C0CC2329F08C2FB9
:103E90000E94891F6C2F03C00E94851F682F70E04D
:103EA00080E090E0CF910C94A919CF9108956DEE28
:103EB0007EEF80E090E00E94B22860E082E090E037
:103EC0000E94A42860E083E090E00E94A42860E0C3
:103ED00084E090E00E94A42860E085E090E00C94EB
:103EE000A42880E090E00E949E2821E08D3E9E4F15
:103EF00009F020E0822F089582E090E00C9496284B
:103F0000682F82E090E00C94A42883E090E00C9469
:103F10009628682F83E090E00C94A42884E090E039
:103F20000C949628682F84E090E00C94A42880914B
:103F3000B90180FF0BC06091110185E0689FB0015D
:103F4000112475956795759567952AC081FF09C0FD
:103F50006091110185E0689FB00111247595679506
:103F60001FC082FF07C06091110185E0689FB0010A
:103F7000112416C04091BA014423C9F06091100188
:103F8000461788F72091110185E0289F90011124A0
:103F9000429FC001439F900D112470E00E94682849
:103FA0006038710540F46115710539F002C065E0B3
:103FB00070E0862F08958FE7089581E0089580913D
:103FC000B90180FF08C060910F0170E07595679599
:103FD0007595679521C081FF06C060910F0170E063
:103FE0007595679519C082FF04C060910F0170E05C
:103FF00010C08091BA018823C1F060910E0186172C
:10400000A0F790910F01989FC001112470E00E94C9
:1040100068286038710528F46115710521F0862F34
:1040200008958FE7089581E0089561E070E0F4CF8E
:10403000803F21F40E94971F819504C0813F29F49D
:104040000E94971F8093BD010895823F21F40E9432
:10405000971F819504C0833F29F40E94971F809386
:10406000BC010895893F19F40E94DF1F05C08A3FF3
:1040700031F40E94DF1F81958093BE0108958B3F2C
:1040800021F40E94DF1F819504C08C3F29F40E9417
:10409000DF1F8093BF010895843F21F48091BB010D
:1040A000816017C0853F21F48091BB01826011C0FF
:1040B000863F21F48091BB0184600BC0873F21F4CF
:1040C0008091BB01886005C0883F31F48091BB01BD
:1040D00080618093BB0108958D3F21F48091B901E7
:1040E00081600BC08E3F21F48091B901826005C0D0
:1040F0008F3F29F48091B90184608093B9010895BC
:10410000803F39F48091BD0187FF6CC01092BD01E2
:1041100069C0813F29F48091BD011816BCF362C0CB
:104120009091BC01823F29F497FF5CC01092BC01C2
:1041300059C0833F19F41916CCF354C0893F41F498
:104140008091BE0118160CF04DC01092BE014AC0FD
:104150008A3F29F48091BE0187FF44C0F6CF8B3F90
:1041600039F48091BF0187FF3DC01092BF013AC072
:104170008C3F29F48091BF011816BCF333C0843FF3
:1041800021F48091BB018E7F17C0853F21F480917F
:10419000BB018D7F11C0863F21F48091BB018B7FD5
:1041A0000BC0873F21F48091BB01877F05C0883F0A
:1041B00031F48091BB018F7E8093BB0113C08D3F92
:1041C00021F48091B9018E7F0BC08E3F21F4809144
:1041D000B9018D7F05C08F3F29F48091B9018B7F94
:1041E0008093B9018091BC0181110EC08091BD0105
:1041F00081110AC08091BE01811106C08091BF016A
:10420000811102C01092BA0108958091B10183FF1B
:104210007EC085EE93E00E94E1058091BB011F9274
:104220008F9380EE93E09F938F930E947A068EED9A
:1042300093E00E94E1052091BC01822F992787FD20
:1042400090959F932F938BED93E09F938F930E9474
:104250007A0689ED93E00E94E1052091BD01822F4D
:10426000992787FD90959F932F9386ED93E09F93D9
:104270008F930E947A0684ED93E00E94E1052091DD
:10428000BE01822F992787FD90959F932F9381EDF3
:1042900093E09F938F930E947A068FEC93E00E94A5
:1042A000E1052091BF01822F992787FD90959F936B
:1042B0002F938CEC93E09F938F930E947A0689EC66
:1042C00093E00E94E1058091BA011F928F9386ECE2
:1042D00093E09F938F930E947A0684EC93E00E9470
:1042E000E1058091B9011F928F9381EC93E09F9338
:1042F0008F930E947A068EEB93E00E94E1058DB7C2
:104300009EB74C960FB6F8949EBF0FBE8DBF8BEB39
:1043100091E00E94F40F0E94611C9093B801809379
:10432000B70108951F93CF93DF938091B7019091C8
:10433000B8010E94791C4091BA01442321F02091D8
:10434000120130E006C0209113015AE0259F900130
:1043500011248217930708F482C08091BC01109148
:10436000BD01D091BE01C091BF01811107C01111E3
:1043700005C0D11103C0CC2309F471C04F3F19F01F
:104380004F5F4093BA01181624F40E94971F809340
:10439000BC018091BC0187FF05C00E94971F8195D9
:1043A0008093BC01111624F40E94971F8093BD01D5
:1043B0008091BD0187FF05C00E94971F8195809362
:1043C000BD016091BC01662339F11091BD0111233B
:1043D00019F1772767FD7095872F972F0E946D271A
:1043E00023E333E343E35FE30E94D1270E943A27AC
:1043F0006093BC01612F772767FD7095872F972FFA
:104400000E946D2723E333E343E35FE30E94D12758
:104410000E943A276093BD011D1624F40E94DF1FFD
:104420008093BE018091BE0187FF05C00E94DF1FFF
:1044300081958093BE011C1624F40E94DF1F809397
:10444000BF018091BF0187FF05C00E94DF1F8195DA
:104450008093BF01DF91CF911F910C940521DF91D3
:10446000CF911F910895EBEBF1E085E0DF011D9204
:104470008A95E9F71092BA011092B901089588E07F
:1044800096E00E94E1051F9281E08F931F9285E0E4
:104490008F938AEB95E09F938F930E947A060F90FB
:1044A0000F900F900F900F900F9008958330E9F1C7
:1044B00028F4813061F0823009F10895853009F4E3
:1044C00062C008F449C0863009F474C00895209190
:1044D0001301862F90E0820F911D8F3F910520F4EC
:1044E000620F6093130103C08FEF809313018091DB
:1044F00013011F928F9383EF94E072C020911201F9
:10450000862F90E0820F911D8F3F910520F4620F5E
:104510006093120103C08FEF80931201809112010A
:104520001F928F9381EE94E05BC020911101862F42
:1045300090E0820F911D8F3F910520F4620F6093F0
:10454000110103C08FEF80931101809111011F921F
:104550008F938EEC94E044C020911001862F90E060
:10456000820F911D8F3F910520F4620F609310011F
:1045700003C08FEF80931001809110011F928F93E1
:1045800089EB94E02DC020910F01862F90E0820FDF
:10459000911D8F3F910520F4620F60930F0103C0BE
:1045A0008FEF80930F0180910F011F928F9380EA0C
:1045B00094E016C020910E01862F90E0820F911D8D
:1045C0008F3F910520F4620F60930E0103C08FEFBF
:1045D00080930E0180910E011F928F9385E894E0E5
:1045E0009F938F930E947A060F900F900F900F90D9
:1045F0000895833081F128F4813059F08230D1F070
:104600000895853009F449C0B8F1863009F456C0E0
:10461000089580911301681720F4861B809313017D
:1046200002C010921301809113011F928F9386E7AD
:1046300094E054C080911201681720F4861B809387
:10464000120102C010921201809112011F928F93E9
:1046500084E694E043C080911101681720F4861B22
:104660008093110102C010921101809111011F92DB
:104670008F9381E594E032C080911001681720F497
:10468000861B8093100102C01092100180911001CE
:104690001F928F938CE394E021C080910F016817E3
:1046A00020F4861B80930F0102C010920F018091AD
:1046B0000F011F928F9383E294E010C080910E014E
:1046C000681720F4861B80930E0102C010920E0121
:1046D00080910E011F928F9388E094E09F938F93B7
:1046E0000E947A060F900F900F900F900895CF932D
:1046F000C82F1F928F932DE037E03F932F930E9496
:104700007A0661E070E080E090E004C0660F771FF9
:10471000881F991FCA95D2F70E94A9190F900F9070
:104720000F900F90CF910C949215CF938732B0F5E4
:104730008E3108F03DC28E3009F4BDC100F58730DE
:1047400009F48DC1A8F4863009F036C28091B10118
:10475000817F8E7F8093B10182E197E00E94E10525
:104760008EE09BE00E94E10581E08093C10175C16C
:10477000883009F43FC08B3009F46BC11DC286310B
:1047800009F4DDC120F4803109F4A8C115C28931D2
:1047900009F4BEC18B3109F47BC10EC2883309F420
:1047A00058C150F4893209F401C2853309F4FEC1BD
:1047B000873209F001C2FAC1833409F4F7C128F441
:1047C0008A3308F4F9C18953F4C1883409F0F4C17B
:1047D0000E9492158DEF9AE00E94E1059FEF23ED74
:1047E00080E3915020408040E1F700C000000E942B
:1047F000C71C33C182E19BE00E94E10589E099E09A
:104800000E94E1050E94851F1F928F9386E099E028
:104810009F938F930E947A0684E099E00E94E105BD
:104820000E947C1FC82F81EF98E00E94E1051F9233
:10483000CF932CEE38E03F932F930E947A068AEEB6
:1048400098E00E94E10580EE98E00E94E1058C2F3F
:1048500081701F928F932DED38E03F932F930E942C
:104860007A068BED98E00E94E10581ED98E00E94C8
:10487000E105C1FB882780F91F928F932EEC38E069
:104880003F932F930E947A068CEC98E00E94E105FA
:1048900080EC98E00E94E105C2FB882780F91F9216
:1048A0008F932DEB38E03F932F930E947A068BEB8A
:1048B00098E00E94E10582EB98E00E94E105C3FBCD
:1048C000CC27C0F91F92CF938FEA98E09F938F93E4
:1048D0000E947A068DEA98E00E94E1050E948E1FF0
:1048E000C82F89E998E00E94E1051F92CF9324E93F
:1048F00038E03F932F930E947A0682E998E00E9465
:10490000E10589E798E00E94E1058C2F81701F92F4
:104910008F9326E738E03F932F930E947A068DB756
:104920009EB780960FB6F8949EBF0FBE8DBF84E7EA
:1049300098E00E94E1058DE598E00E94E105C1FB49
:10494000882780F91F928F932AE538E03F932F93B1
:104950000E947A0688E598E00E94E10586E498E0E6
:104960000E94E105C2FB882780F91F928F9323E400
:1049700038E03F932F930E947A0681E498E00E94EA
:10498000E1058FE298E00E94E105C3FB882780F9EA
:104990001F928F932CE238E03F932F930E947A0668
:1049A0008AE298E00E94E10580E298E00E94E10539
:1049B000C4FB882780F91F928F932DE138E03F9345
:1049C0002F930E947A068BE198E00E94E10589E02E
:1049D00098E00E94E105C5FB882780F91F928F931C
:1049E00026E038E03F932F930E947A0684E098E017
:1049F0000E94E10588EE97E00E94E105C6FB88274A
:104A000080F91F928F9325EE37E03F932F930E94FA
:104A10007A0683EE97E00E94E1058BED97E00E9415
:104A2000E105C7FBCC27C0F91F92CF9388ED97E033
:104A30009F938F930E947A0686ED97E00E94E1058E
:104A40008DB79EB74C960FB6F8949EBF0FBE8DBF24
:104A500004C089E397E00E94E105C1E0B2C0809103
:104A6000B101C82FC17080FF09C080EF9AE00E9499
:104A7000E1058091B101817F8E7F44C084EE9AE090
:104A80000E94E1058091B10181608093B101E5CF81
:104A90008091B10181FBCC27C0F991E0C927C0FB0F
:104AA00081F98093B101CC2319F087ED9AE025C0FC
:104AB00089EC9AE0D0CF8091B10182FBCC27C0F97C
:104AC00091E0C927C0FB82F98093B101CC2319F092
:104AD0008AEB9AE012C08AEA9AE0BDCF8091B101D8
:104AE00083FBCC27C0F991E0C927C0FB83F98093F1
:104AF000B101CC2351F08EE99AE00E94E10580914A
:104B0000B10181608093B1015CC081E99AE0A3CFDB
:104B100082E89AE00E94E10580E59AE00E94E105C2
:104B20008FE19AE00E94E10582EF99E00E94E105A1
:104B300082EB99E00E94E10584E899E08CCF86E75A
:104B400099E00E94E1050E94A30F1F928F938CE5CC
:104B500099E09F938F930E947A0680910B011F9298
:104B60008F9385E499E09F938F930E947A068091BA
:104B700054011F928F9382E399E09F938F930E9439
:104B80007A060E946D1C9F938F937F936F938BE1A6
:104B900099E09F938F930E947A068DB79EB74296B5
:104BA0000FB6F8949EBF0FBE8DBF57CF80E001C0F7
:104BB0008D510E94772351CF89E199E00E94E10550
:104BC000C0E08C2FCF91089580E0089580E0089593
:104BD000CF93C82F8091C101813071F020F08230D5
:104BE00009F448C03FC1A0910C01B0910D018C9116
:104BF000823209F039C107C0A0910C01B0910D01BA
:104C00008C91823249F48C2F0E94E42581112FC0AF
:104C10008C2F0E9495232CC08C2F0E94E625811199
:104C200026C0C431E1F070F4CB3081F0C031D1F452
:104C30000E943F2285E097E00E94E10582E0809398
:104C4000C10115C0C93259F0C83361F482E197E05F
:104C50000E94E10589E097E00E94E10508C01092FA
:104C6000C10104C183E097E00E94E105FFC081E03B
:104C70008170FEC0C43228F5CE3108F0C1C0CB30FF
:104C8000A1F1D0F4C73009F0D3C08EE180931301B5
:104C900082E3809312018AE08093110184E1809382
:104CA000100188E080930F0188E280930E0189EA69
:104CB00095E00E94E105BFC0C33149F1C431C1F0A4
:104CC000B7C0CB3409F4A9C028F4C93289F0C8337D
:104CD00061F0AEC0C13509F49EC0C23509F499C077
:104CE000CE3409F0A5C06AE09EC00E943F22A3C056
:104CF0008091C001882319F01092C0019CC086EBFE
:104D000095E00E94E10581E08093C101B1C080E996
:104D100095E00E94E1058EE795E00E94E105809113
:104D200013011F928F938BE795E09F938F930E94BF
:104D30007A0689E795E00E94E10587E695E00E9402
:104D4000E105809112011F928F9384E695E09F9375
:104D50008F930E947A0682E695E00E94E10583E542
:104D600095E00E94E105809111011F928F9380E5EB
:104D700095E09F938F930E947A068EE495E00E94BF
:104D8000E1058DE395E00E94E105809110011F92FD
:104D90008F938AE395E09F938F930E947A0688E32E
:104DA00095E00E94E10583E295E00E94E105809193
:104DB0000F011F928F9380E295E09F938F930E9443
:104DC0007A068EE195E00E94E10587E095E00E9479
:104DD000E10580910E011F928F9384E095E09F93EF
:104DE0008F930E947A0682E095E00E94E1058DB7DC
:104DF0009EB748960FB6F8949EBF0FBE8DBF1BC0DE
:104E0000CE51EC2FF0E0E85DFE4F80818093C00131
:104E100012C061E003C061E006C06AE08091C00199
:104E20000E94562208C08091C0010E94F92203C04E
:104E300087EA95E013C08091C001882369F01F9232
:104E40008F9381EA95E09F938F930E947A060F904B
:104E50000F900F900F9004C08EE995E00E94E1053D
:104E600081E006C01092C10180E002C080E000CF66
:104E7000CF91089504D06894B1118DC0089570D079
:104E800088F09F5790F0B92F9927B751A0F0D1F033
:104E9000660F771F881F991F1AF0BA95C9F712C0BD
:104EA000B13081F077D0B1E0089574C0672F782FCA
:104EB0008827B85F39F0B93FCCF386957795679529
:104EC000B395D9F73EF490958095709561957F4F95
:104ED0008F4F9F4F0895E89409C097FB3EF490953B
:104EE0008095709561957F4F8F4F9F4F9923A9F0C3
:104EF000F92F96E9BB279395F69587957795679552
:104F0000B795F111F8CFFAF4BB0F11F460FF1BC095
:104F10006F5F7F4F8F4F9F4F16C0882311F096E928
:104F200011C0772321F09EE8872F762F05C06623D6
:104F300071F096E8862F70E060E02AF09A95660F8F
:104F4000771F881FDAF7880F9695879597F9089548
:104F500057FD9058440F551F59F05F3F71F047952A
:104F6000880F97FB991F61F09F3F79F0879508950F
:104F7000121613061406551FF2CF4695F1DF08C02E
:104F8000161617061806991FF1CF8695710561054B
:104F900008940895E894BB2766277727CB0197F9F3
:104FA00008950BD078C069D028F06ED018F0952302
:104FB00009F05AC05FC01124EECFCADFA0F3959F5D
:104FC000D1F3950F50E0551F629FF001729FBB27F0
:104FD000F00DB11D639FAA27F00DB11DAA1F649F9C
:104FE0006627B00DA11D661F829F2227B00DA11D4F
:104FF000621F739FB00DA11D621F839FA00D611DD5
:10500000221F749F3327A00D611D231F849F600DF5
:10501000211D822F762F6A2F11249F5750408AF02E
:10502000E1F088234AF0EE0FFF1FBB1F661F771FBA
:10503000881F91505040A9F79E3F510570F014C051
:10504000AACF5F3FECF3983EDCF3869577956795A2
:10505000B795F795E7959F5FC1F7FE2B880F911DD8
:105060009695879597F9089597F99F6780E870E07E
:1050700060E008959FEF80EC089500240A941616CE
:10508000170618060906089500240A941216130636
:10509000140605060895092E0394000C11F48823C4
:1050A00052F0BB0F40F4BF2B11F460FF04C06F5FE0
:1050B0007F4F8F4F9F4F0895991B79E004C0991F30
:1050C000961708F0961B881F7A95C9F78095089562
:1050D00097FB072E16F4009407D077FD09D00E94A5
:1050E000822807FC05D03EF4909581959F4F089546
:1050F000709561957F4F0895EE0FFF1F0590F49115
:10510000E02D0994AA1BBB1B51E107C0AA1FBB1FBE
:10511000A617B70710F0A61BB70B881F991F5A9543
:10512000A9F780959095BC01CD010895F999FECF1E
:1051300092BD81BDF89A992780B50895A8E1B0E0A5
:1051400042E050E00C94B928262FF999FECF1FBAFF
:1051500092BD81BD20BD0FB6F894FA9AF99A0FBEA0
:10516000019608950E94A428272F0C94A528DC01FD
:10517000CB01FC01F999FECF06C0F2BDE1BDF89A62
:10518000319600B40D9241505040B8F70895F8940C
:02519000FFCF4F
:10519200052B081C09F908C508920801A70128086F
:1051A200140A321E3F4D36202F03E202AC028C025B
:1051B200180231024A0263020102030405060708CB
:0251C2000900E2
:00000001FF
